:100000000C9435000C945D000C945D000C945D0024
:100010000C945D000C945D000C945D000C945D00EC
:100020000C945D000C945D000C945D000C945D00DC
:100030000C945D000C945D000C945D000C945D00CC
:100040000C9428040C945D000C94D5000C942701AA
:100050000C945D000C945D000C945D000C945D00AC
:100060000C945D000C945D00960211241FBECFEF2E
:10007000D8E0DEBFCDBF11E0A0E0B1E0ECE2FBE0F4
:1000800002C005900D92A034B107D9F711E0A0E4A9
:10009000B1E001C01D92AB3FB107E1F710E0CAE645
:1000A000D0E004C02297FE010E949005C836D10717
:1000B000C9F70E94C5000C9494050C94000080912F
:1000C0002D010E940405BC019093410180934001E1
:1000D000809144019091450120914201309143016A
:1000E000820F931F2091460130914701820F931F89
:1000F000860F971F909347018093460180ED91E012
:100100004AE050E00E94F603209140013091410105
:1001100083E0253838072CF080ED91E060E071E055
:1001200022C082E0293538072CF080ED91E067E0AD
:1001300071E019C0C9018F559140893F910528F49C
:1001400080ED91E062E171E00EC02F5630402F3E0D
:10015000310528F480ED91E06BE171E004C080EDA1
:1001600091E063E271E00E94150464E670E080E0D3
:1001700090E00E947004089580ED91E040E855E21F
:1001800060E070E00E9462010895CF93DF930E94C7
:10019000C9040E94BC00C0E1D1E00E945F0020972A
:1001A000E1F30E941001F9CF08951F920F920FB64C
:1001B0000F9211242F933F934F938F939F93EF931D
:1001C000FF938091C00082FD1DC04091C600209128
:1001D0008801309189012F5F3F4F2F7330708091DC
:1001E0008A0190918B012817390771F0E0918801FD
:1001F000F0918901E85BFE4F4083309389012093A1
:10020000880102C08091C600FF91EF919F918F916C
:100210004F913F912F910F900FBE0F901F90189507
:10022000E091DC01F091DD01E05CFF4F8191919163
:1002300020813181805C9F4F821B930B60E470E0D2
:100240000E944505892B11F00E94D40008951F9249
:100250000F920FB60F9211242F933F938F939F937A
:10026000EF93FF932091CC013091CD018091CE018D
:100270009091CF012817390731F48091C1008F7D0B
:100280008093C10014C0E091CE01F091CF01E457FA
:10029000FE4F20818091CE019091CF0101968F7306
:1002A00090709093CF018093CE012093C600FF9170
:1002B000EF919F918F913F912F910F900FBE0F90D3
:1002C0001F901895AF92BF92DF92EF92FF920F931B
:1002D0001F93CF93DF93EC017A018B01DD24403033
:1002E00081EE580780E0680780E0780711F0DD2490
:1002F000D39491E0A92EB12CEC89FD89DD2069F021
:10030000C50108A002C0880F991F0A94E2F78083F4
:1003100060E079E08DE390E005C0108260E874E869
:100320008EE190E0A80197010E94580521503040CD
:1003300040405040569547953795279580E12030AD
:10034000380720F0DD2011F0DD24D6CFE889F989C7
:100350003083EA89FB89208319A2EE89FF894081D5
:1003600021E030E0C9010C8C02C0880F991F0A946B
:10037000E2F7482B4083EE89FF894081C9010D8C4B
:1003800002C0880F991F0A94E2F7482B4083EE8938
:10039000FF894081C9010E8C02C0880F991F0A9401
:1003A000E2F7482B4083EE89FF8980810F8C02C0E1
:1003B000220F331F0A94E2F7209528232083DF9130
:1003C000CF911F910F91FF90EF90DF90BF90AF9072
:1003D0000895DC011C96ED91FC911D97E05CFF4FA8
:1003E0008191919120813181805C9F4F821B930B81
:1003F00060E470E00E9445050895DC011C96ED91D3
:10040000FC911D97E05CFF4F20813181E054F0406A
:10041000DF01AE5BBF4F8D919C9111972817390773
:1004200019F42FEF3FEF07C08D919C91E80FF91F52
:100430008081282F30E0C9010895DC011C96ED91E0
:10044000FC911D97E05CFF4F20813181E054F0402A
:10045000DF01AE5BBF4F8D919C9111972817390733
:1004600019F42FEF3FEF10C08D919C911197E80F79
:10047000F91F20818D919C91119701968F73907037
:1004800011969C938E9330E0C9010895DC019196FA
:100490008C919197882339F05496ED91FC91559762
:1004A000808186FFF9CF91961C920895CF93DF93B8
:1004B000EC01EE85FF85E05CFF4F20813181E05447
:1004C000F0402F5F3F4F2F733070DF01AE5BBF4FA7
:1004D0008D919C91119728173907D1F3E05CFF4F5C
:1004E00080819181E054F040E80FF91F6083EE8530
:1004F000FF85E05CFF4F31832083EE89FF892081F7
:1005000081E090E00F8C02C0880F991F0A94E2F7F7
:10051000282B208381E089A3EC89FD898081806478
:10052000808381E090E0DF91CF9108951092D30114
:100530001092D20188EE93E0A0E0B0E08093D40165
:100540009093D501A093D601B093D70184E391E0B5
:100550009093D1018093D00188E491E09093DD01E4
:100560008093DC018CE891E09093DF018093DE01C1
:1005700085EC90E09093E1018093E00184EC90E0C1
:100580009093E3018093E20180EC90E09093E50189
:100590008093E40181EC90E09093E7018093E60181
:1005A00082EC90E09093E9018093E80186EC90E082
:1005B0009093EB018093EA0184E08093EC0183E067
:1005C0008093ED0187E08093EE0185E08093EF0159
:1005D00081E08093F0010895CF92DF92EF92FF9235
:1005E0000F931F93CF93DF937C016B018A01C0E0CF
:1005F000D0E00FC0D6016D916D01D701ED91FC9156
:100600000190F081E02DC7010995C80FD91F015055
:1006100010400115110571F7CE01DF91CF911F91A7
:100620000F91FF90EF90DF90CF900895EF92FF929F
:100630000F931F938C01DC01ED91FC910190F081EF
:10064000E02D6DE009957C01D801ED91FC910190C0
:10065000F081E02DC8016AE009959C012E0D3F1D37
:10066000C9011F910F91FF90EF900895CF93DF93F1
:10067000EC016115710519F420E030E00FC0DB01D9
:100680000D900020E9F71197A61BB70BE881F981BF
:100690000280F381E02DAD0109959C01C901DF9134
:1006A000CF9108954F925F927F928F929F92AF92D7
:1006B000BF92CF92DF92EF92FF920F931F93DF933F
:1006C000CF93CDB7DEB7A1970FB6F894DEBF0FBEBC
:1006D000CDBF2C01742ECB01223008F42AE019A2E0
:1006E00031E2C32ED12CCC0EDD1E822E9924AA24F9
:1006F000BB24672D752FA50194010E94580579012F
:100700008A01C801B701A50194010E942605472D61
:10071000461B0894C108D1084A3014F4405D01C05A
:10072000495CF6014083E114F1040105110521F053
:100730007E2C5F2DC801DDCFC201B6010E943603B9
:10074000A1960FB6F894DEBF0FBECDBFCF91DF915B
:100750001F910F91FF90EF90DF90CF90BF90AF90DF
:100760009F908F907F905F904F900895CF92DF92EF
:10077000EF92FF920F931F93CF93DF93EC016A01E7
:100780007B012115310541F4E881F9810190F08167
:10079000E02D642F09951FC02A303105D1F477FF71
:1007A00017C0E881F9810190F081E02D6DE2099593
:1007B0008C0144275527BA014C195D096E097F0940
:1007C000CE012AE00E9452039801280F391F04C06D
:1007D0002AE00E9452039C01C901DF91CF911F9131
:1007E0000F91FF90EF90DF90CF900895CF92DF921E
:1007F000EF92FF920F931F936C017B019A010027E8
:10080000F7FC0095102FB801A7010E94B6038C01D8
:10081000C6010E941603080F191FC8011F910F91EE
:10082000FF90EF90DF90CF900895EF92FF920F939B
:100830001F937C010E9436038C01C7010E9416039E
:10084000080F191FC8011F910F91FF90EF90089595
:100850001F920F920FB60F9211242F933F938F93F5
:100860009F93AF93BF938091F6019091F701A09170
:10087000F801B091F9013091FA010196A11DB11D65
:10088000232F2D5F2D3720F02D570196A11DB11D6F
:100890002093FA018093F6019093F701A093F80159
:1008A000B093F9018091F2019091F301A091F401CC
:1008B000B091F5010196A11DB11D8093F2019093B5
:1008C000F301A093F401B093F501BF91AF919F9113
:1008D0008F913F912F910F900FBE0F901F90189501
:1008E0009B01AC017FB7F8948091F2019091F301E4
:1008F000A091F401B091F50166B5A89B05C06F3FCA
:1009000019F00196A11DB11D7FBFBA2FA92F982FF5
:100910008827860F911DA11DB11D62E0880F991FC8
:10092000AA1FBB1F6A95D1F7BC012DC0FFB7F89471
:100930008091F2019091F301A091F401B091F50141
:10094000E6B5A89B05C0EF3F19F00196A11DB11DAA
:10095000FFBFBA2FA92F982F88278E0F911DA11D99
:10096000B11DE2E0880F991FAA1FBB1FEA95D1F7BE
:10097000861B970B885E9340C8F221503040404060
:10098000504068517C4F211531054105510571F6E4
:100990000895789484B5826084BD84B5816084BDF7
:1009A00085B5826085BD85B5816085BDEEE6F0E0E8
:1009B000808181608083E1E8F0E010828081826044
:1009C0008083808181608083E0E8F0E080818160C5
:1009D0008083E1EBF0E0808184608083E0EBF0E0F5
:1009E000808181608083EAE7F0E080818460808399
:1009F0008081826080838081816080838081806843
:100A000080831092C1000895982F8E3008F09E5078
:100A1000977080912F018295880F880F807C892B99
:100A200080937C0080917A00806480937A0080912A
:100A30007A0086FDFCCF2091780040917900942FB8
:100A400080E030E0282B392BC9010895629FD00146
:100A5000739FF001829FE00DF11D649FE00DF11D79
:100A6000929FF00D839FF00D749FF00D659FF00D28
:100A70009927729FB00DE11DF91F639FB00DE11D15
:100A8000F91FBD01CF011124089597FB092E0726F8
:100A90000AD077FD04D02ED006D000201AF470952D
:100AA00061957F4F0895F6F7909581959F4F089532
:100AB000A1E21A2EAA1BBB1BFD010DC0AA1FBB1F62
:100AC000EE1FFF1FA217B307E407F50720F0A21BD4
:100AD000B30BE40BF50B661F771F881F991F1A9441
:100AE00069F760957095809590959B01AC01BD016B
:100AF000CF010895AA1BBB1B51E107C0AA1FBB1F52
:100B0000A617B70710F0A61BB70B881F991F5A9599
:100B1000A9F780959095BC01CD010895EE0FFF1FB8
:0C0B20000590F491E02D0994F894FFCFAB
:100B2C006F6E204C4452004C4452207374726F6EA2
:100B3C0067004C4452207765616B006F6666204CF1
:100B4C004452006C69676874206F6666000E000181
:100B5C00000000005602EC02E9011D02FD014602F4
:00000001FF
